14:50:47.316533 ARP, Request who-has 10.0.0.7 tell 10.0.0.3, length 28
	0x0000:  ffff ffff ffff 0000 0000 0023 0806 0001  ...........#....
	0x0010:  0800 0604 0001 0000 0000 0023 0a00 0003  ...........#....
	0x0020:  0000 0000 0000 0a00 0007                 ..........

