14:50:47.316505 ARP, Request who-has 10.0.0.7 tell 10.0.0.3, length 28
	0x0000:  ffff ffff ffff 0000 0000 0023 0806 0001  ...........#....
	0x0010:  0800 0604 0001 0000 0000 0023 0a00 0003  ...........#....
	0x0020:  0000 0000 0000 0a00 0007                 ..........
14:50:47.316524 ARP, Reply 10.0.0.7 is-at 26:c7:10:27:75:89, length 28
	0x0000:  0000 0000 0023 26c7 1027 7589 0806 0001  .....#&..'u.....
	0x0010:  0800 0604 0002 26c7 1027 7589 0a00 0007  ......&..'u.....
	0x0020:  0000 0000 0023 0a00 0003                 .....#....
14:50:47.322179 IP 10.0.0.3 > 10.0.0.7: ICMP echo request, id 11212, seq 1, length 64
	0x0000:  26c7 1027 7589 0000 0000 0023 0800 4500  &..'u......#..E.
	0x0010:  0054 59ed 4000 4001 ccb2 0a00 0003 0a00  .TY.@.@.........
	0x0020:  0007 0800 9161 2bcc 0001 77dd fd54 0000  .....a+...w..T..
	0x0030:  0000 02cc 0400 0000 0000 1011 1213 1415  ................
	0x0040:  1617 1819 1a1b 1c1d 1e1f 2021 2223 2425  ...........!"#$%
	0x0050:  2627 2829 2a2b 2c2d 2e2f 3031 3233 3435  &'()*+,-./012345
	0x0060:  3637                                     67
14:50:47.322206 IP 10.0.0.7 > 10.0.0.3: ICMP echo reply, id 11212, seq 1, length 64
	0x0000:  0000 0000 0023 26c7 1027 7589 0800 4500  .....#&..'u...E.
	0x0010:  0054 24ee 0000 4001 41b2 0a00 0007 0a00  .T$...@.A.......
	0x0020:  0003 0000 9961 2bcc 0001 77dd fd54 0000  .....a+...w..T..
	0x0030:  0000 02cc 0400 0000 0000 1011 1213 1415  ................
	0x0040:  1617 1819 1a1b 1c1d 1e1f 2021 2223 2425  ...........!"#$%
	0x0050:  2627 2829 2a2b 2c2d 2e2f 3031 3233 3435  &'()*+,-./012345
	0x0060:  3637                                     67
14:50:48.318796 IP 10.0.0.3 > 10.0.0.7: ICMP echo request, id 11212, seq 2, length 64
	0x0000:  26c7 1027 7589 0000 0000 0023 0800 4500  &..'u......#..E.
	0x0010:  0054 5ad9 4000 4001 cbc6 0a00 0003 0a00  .TZ.@.@.........
	0x0020:  0007 0800 5e50 2bcc 0002 78dd fd54 0000  ....^P+...x..T..
	0x0030:  0000 34dc 0400 0000 0000 1011 1213 1415  ..4.............
	0x0040:  1617 1819 1a1b 1c1d 1e1f 2021 2223 2425  ...........!"#$%
	0x0050:  2627 2829 2a2b 2c2d 2e2f 3031 3233 3435  &'()*+,-./012345
	0x0060:  3637                                     67
14:50:48.318822 IP 10.0.0.7 > 10.0.0.3: ICMP echo reply, id 11212, seq 2, length 64
	0x0000:  0000 0000 0023 26c7 1027 7589 0800 4500  .....#&..'u...E.
	0x0010:  0054 257b 0000 4001 4125 0a00 0007 0a00  .T%{..@.A%......
	0x0020:  0003 0000 6650 2bcc 0002 78dd fd54 0000  ....fP+...x..T..
	0x0030:  0000 34dc 0400 0000 0000 1011 1213 1415  ..4.............
	0x0040:  1617 1819 1a1b 1c1d 1e1f 2021 2223 2425  ...........!"#$%
	0x0050:  2627 2829 2a2b 2c2d 2e2f 3031 3233 3435  &'()*+,-./012345
	0x0060:  3637                                     67
14:50:49.317791 IP 10.0.0.3 > 10.0.0.7: ICMP echo request, id 11212, seq 3, length 64
	0x0000:  26c7 1027 7589 0000 0000 0023 0800 4500  &..'u......#..E.
	0x0010:  0054 5b03 4000 4001 cb9c 0a00 0003 0a00  .T[.@.@.........
	0x0020:  0007 0800 4553 2bcc 0003 79dd fd54 0000  ....ES+...y..T..
	0x0030:  0000 4cd8 0400 0000 0000 1011 1213 1415  ..L.............
	0x0040:  1617 1819 1a1b 1c1d 1e1f 2021 2223 2425  ...........!"#$%
	0x0050:  2627 2829 2a2b 2c2d 2e2f 3031 3233 3435  &'()*+,-./012345
	0x0060:  3637                                     67
14:50:49.317817 IP 10.0.0.7 > 10.0.0.3: ICMP echo reply, id 11212, seq 3, length 64
	0x0000:  0000 0000 0023 26c7 1027 7589 0800 4500  .....#&..'u...E.
	0x0010:  0054 2586 0000 4001 411a 0a00 0007 0a00  .T%...@.A.......
	0x0020:  0003 0000 4d53 2bcc 0003 79dd fd54 0000  ....MS+...y..T..
	0x0030:  0000 4cd8 0400 0000 0000 1011 1213 1415  ..L.............
	0x0040:  1617 1819 1a1b 1c1d 1e1f 2021 2223 2425  ...........!"#$%
	0x0050:  2627 2829 2a2b 2c2d 2e2f 3031 3233 3435  &'()*+,-./012345
	0x0060:  3637                                     67
14:50:50.318343 IP 10.0.0.3 > 10.0.0.7: ICMP echo request, id 11212, seq 4, length 64
	0x0000:  26c7 1027 7589 0000 0000 0023 0800 4500  &..'u......#..E.
	0x0010:  0054 5be9 4000 4001 cab6 0a00 0003 0a00  .T[.@.@.........
	0x0020:  0007 0800 2050 2bcc 0004 7add fd54 0000  .....P+...z..T..
	0x0030:  0000 70da 0400 0000 0000 1011 1213 1415  ..p.............
	0x0040:  1617 1819 1a1b 1c1d 1e1f 2021 2223 2425  ...........!"#$%
	0x0050:  2627 2829 2a2b 2c2d 2e2f 3031 3233 3435  &'()*+,-./012345
	0x0060:  3637                                     67
14:50:50.318369 IP 10.0.0.7 > 10.0.0.3: ICMP echo reply, id 11212, seq 4, length 64
	0x0000:  0000 0000 0023 26c7 1027 7589 0800 4500  .....#&..'u...E.
	0x0010:  0054 263d 0000 4001 4063 0a00 0007 0a00  .T&=..@.@c......
	0x0020:  0003 0000 2850 2bcc 0004 7add fd54 0000  ....(P+...z..T..
	0x0030:  0000 70da 0400 0000 0000 1011 1213 1415  ..p.............
	0x0040:  1617 1819 1a1b 1c1d 1e1f 2021 2223 2425  ...........!"#$%
	0x0050:  2627 2829 2a2b 2c2d 2e2f 3031 3233 3435  &'()*+,-./012345
	0x0060:  3637                                     67
14:50:52.336106 ARP, Request who-has 10.0.0.3 tell 10.0.0.1, length 28
	0x0000:  0000 0000 0023 26c7 1027 7589 0806 0001  .....#&..'u.....
	0x0010:  0800 0604 0001 26c7 1027 7589 0a00 0001  ......&..'u.....
	0x0020:  0000 0000 0000 0a00 0003                 ..........
14:50:52.336427 ARP, Reply 10.0.0.3 is-at 00:00:00:00:00:23, length 28
	0x0000:  26c7 1027 7589 0000 0000 0023 0806 0001  &..'u......#....
	0x0010:  0800 0604 0002 0000 0000 0023 0a00 0003  ...........#....
	0x0020:  26c7 1027 7589 0a00 0001                 &..'u.....

